{
  "_format": "hh-sol-artifact-1",
  "contractName": "ApeToken",
  "sourceName": "contracts/ApeToken.sol",
  "abi": [
    {
      "inputs": [],
      "stateMutability": "nonpayable",
      "type": "constructor"
    },
    {
      "anonymous": false,
      "inputs": [
        {
          "indexed": true,
          "internalType": "address",
          "name": "account",
          "type": "address"
        },
        {
          "indexed": true,
          "internalType": "address",
          "name": "operator",
          "type": "address"
        },
        {
          "indexed": false,
          "internalType": "bool",
          "name": "approved",
          "type": "bool"
        }
      ],
      "name": "ApprovalForAll",
      "type": "event"
    },
    {
      "anonymous": false,
      "inputs": [
        {
          "indexed": true,
          "internalType": "address",
          "name": "operator",
          "type": "address"
        },
        {
          "indexed": true,
          "internalType": "address",
          "name": "from",
          "type": "address"
        },
        {
          "indexed": true,
          "internalType": "address",
          "name": "to",
          "type": "address"
        },
        {
          "indexed": false,
          "internalType": "uint256[]",
          "name": "ids",
          "type": "uint256[]"
        },
        {
          "indexed": false,
          "internalType": "uint256[]",
          "name": "values",
          "type": "uint256[]"
        }
      ],
      "name": "TransferBatch",
      "type": "event"
    },
    {
      "anonymous": false,
      "inputs": [
        {
          "indexed": true,
          "internalType": "address",
          "name": "operator",
          "type": "address"
        },
        {
          "indexed": true,
          "internalType": "address",
          "name": "from",
          "type": "address"
        },
        {
          "indexed": true,
          "internalType": "address",
          "name": "to",
          "type": "address"
        },
        {
          "indexed": false,
          "internalType": "uint256",
          "name": "id",
          "type": "uint256"
        },
        {
          "indexed": false,
          "internalType": "uint256",
          "name": "value",
          "type": "uint256"
        }
      ],
      "name": "TransferSingle",
      "type": "event"
    },
    {
      "anonymous": false,
      "inputs": [
        {
          "indexed": false,
          "internalType": "string",
          "name": "value",
          "type": "string"
        },
        {
          "indexed": true,
          "internalType": "uint256",
          "name": "id",
          "type": "uint256"
        }
      ],
      "name": "URI",
      "type": "event"
    },
    {
      "inputs": [
        {
          "internalType": "address",
          "name": "account",
          "type": "address"
        },
        {
          "internalType": "uint256",
          "name": "id",
          "type": "uint256"
        }
      ],
      "name": "balanceOf",
      "outputs": [
        {
          "internalType": "uint256",
          "name": "",
          "type": "uint256"
        }
      ],
      "stateMutability": "view",
      "type": "function"
    },
    {
      "inputs": [
        {
          "internalType": "address[]",
          "name": "accounts",
          "type": "address[]"
        },
        {
          "internalType": "uint256[]",
          "name": "ids",
          "type": "uint256[]"
        }
      ],
      "name": "balanceOfBatch",
      "outputs": [
        {
          "internalType": "uint256[]",
          "name": "",
          "type": "uint256[]"
        }
      ],
      "stateMutability": "view",
      "type": "function"
    },
    {
      "inputs": [],
      "name": "contractURI",
      "outputs": [
        {
          "internalType": "string",
          "name": "",
          "type": "string"
        }
      ],
      "stateMutability": "pure",
      "type": "function"
    },
    {
      "inputs": [
        {
          "internalType": "address",
          "name": "account",
          "type": "address"
        },
        {
          "internalType": "address",
          "name": "operator",
          "type": "address"
        }
      ],
      "name": "isApprovedForAll",
      "outputs": [
        {
          "internalType": "bool",
          "name": "",
          "type": "bool"
        }
      ],
      "stateMutability": "view",
      "type": "function"
    },
    {
      "inputs": [
        {
          "internalType": "address",
          "name": "to",
          "type": "address"
        },
        {
          "internalType": "uint256",
          "name": "id",
          "type": "uint256"
        },
        {
          "internalType": "uint256",
          "name": "amount",
          "type": "uint256"
        }
      ],
      "name": "mint",
      "outputs": [],
      "stateMutability": "nonpayable",
      "type": "function"
    },
    {
      "inputs": [
        {
          "internalType": "address",
          "name": "from",
          "type": "address"
        },
        {
          "internalType": "address",
          "name": "to",
          "type": "address"
        },
        {
          "internalType": "uint256[]",
          "name": "ids",
          "type": "uint256[]"
        },
        {
          "internalType": "uint256[]",
          "name": "amounts",
          "type": "uint256[]"
        },
        {
          "internalType": "bytes",
          "name": "data",
          "type": "bytes"
        }
      ],
      "name": "safeBatchTransferFrom",
      "outputs": [],
      "stateMutability": "nonpayable",
      "type": "function"
    },
    {
      "inputs": [
        {
          "internalType": "address",
          "name": "from",
          "type": "address"
        },
        {
          "internalType": "address",
          "name": "to",
          "type": "address"
        },
        {
          "internalType": "uint256",
          "name": "id",
          "type": "uint256"
        },
        {
          "internalType": "uint256",
          "name": "amount",
          "type": "uint256"
        },
        {
          "internalType": "bytes",
          "name": "data",
          "type": "bytes"
        }
      ],
      "name": "safeTransferFrom",
      "outputs": [],
      "stateMutability": "nonpayable",
      "type": "function"
    },
    {
      "inputs": [
        {
          "internalType": "address",
          "name": "operator",
          "type": "address"
        },
        {
          "internalType": "bool",
          "name": "approved",
          "type": "bool"
        }
      ],
      "name": "setApprovalForAll",
      "outputs": [],
      "stateMutability": "nonpayable",
      "type": "function"
    },
    {
      "inputs": [
        {
          "internalType": "bytes4",
          "name": "interfaceId",
          "type": "bytes4"
        }
      ],
      "name": "supportsInterface",
      "outputs": [
        {
          "internalType": "bool",
          "name": "",
          "type": "bool"
        }
      ],
      "stateMutability": "view",
      "type": "function"
    },
    {
      "inputs": [
        {
          "internalType": "uint256",
          "name": "_tokenId",
          "type": "uint256"
        }
      ],
      "name": "tokenURI",
      "outputs": [
        {
          "internalType": "string",
          "name": "",
          "type": "string"
        }
      ],
      "stateMutability": "view",
      "type": "function"
    },
    {
      "inputs": [
        {
          "internalType": "uint256",
          "name": "",
          "type": "uint256"
        }
      ],
      "name": "totalSupply",
      "outputs": [
        {
          "internalType": "uint256",
          "name": "",
          "type": "uint256"
        }
      ],
      "stateMutability": "view",
      "type": "function"
    },
    {
      "inputs": [
        {
          "internalType": "uint256",
          "name": "_id",
          "type": "uint256"
        }
      ],
      "name": "uri",
      "outputs": [
        {
          "internalType": "string",
          "name": "",
          "type": "string"
        }
      ],
      "stateMutability": "view",
      "type": "function"
    }
  ],
  "bytecode": "0x60806040523480156200001157600080fd5b50604051806020016040528060008152506200003a6301ffc9a760e01b6200009760201b60201c565b6200004b81620001a060201b60201c565b6200006363d9b67a2660e01b6200009760201b60201c565b6200007b630e89341c60e01b6200009760201b60201c565b50620000913360006001620001bc60201b60201c565b620009ec565b63ffffffff60e01b817bffffffffffffffffffffffffffffffffffffffffffffffffffffffff1916141562000134576040517f08c379a000000000000000000000000000000000000000000000000000000000815260040180806020018281038252601c8152602001807f4552433136353a20696e76616c696420696e746572666163652069640000000081525060200191505060405180910390fd5b6001600080837bffffffffffffffffffffffffffffffffffffffffffffffffffffffff19167bffffffffffffffffffffffffffffffffffffffffffffffffffffffff1916815260200190815260200160002060006101000a81548160ff02191690831515021790555050565b8060039080519060200190620001b89291906200093d565b5050565b620001df83838360405180602001604052806000815250620001e460201b60201c565b505050565b600073ffffffffffffffffffffffffffffffffffffffff168473ffffffffffffffffffffffffffffffffffffffff1614156200026c576040517f08c379a0000000000000000000000000000000000000000000000000000000008152600401808060200182810382526021815260200180620035c56021913960400191505060405180910390fd5b60006200027e6200041860201b60201c565b9050620002b78160008762000299886200042060201b60201c565b620002aa886200042060201b60201c565b876200047b60201b60201c565b62000321836001600087815260200190815260200160002060008873ffffffffffffffffffffffffffffffffffffffff1673ffffffffffffffffffffffffffffffffffffffff168152602001908152602001600020546200048360201b62001ceb1790919060201c565b6001600086815260200190815260200160002060008773ffffffffffffffffffffffffffffffffffffffff1673ffffffffffffffffffffffffffffffffffffffff168152602001908152602001600020819055508473ffffffffffffffffffffffffffffffffffffffff16600073ffffffffffffffffffffffffffffffffffffffff168273ffffffffffffffffffffffffffffffffffffffff167fc3d58168c5ae7397731d063d5bbf3d657854427343f4c083240f7aacaa2d0f628787604051808381526020018281526020019250505060405180910390a462000411816000878787876200050c60201b60201c565b5050505050565b600033905090565b6060806001604051908082528060200260200182016040528015620004545781602001602082028038833980820191505090505b50905082816000815181106200046657fe5b60200260200101818152505080915050919050565b505050505050565b60008082840190508381101562000502576040517f08c379a000000000000000000000000000000000000000000000000000000000815260040180806020018281038252601b8152602001807f536166654d6174683a206164646974696f6e206f766572666c6f77000000000081525060200191505060405180910390fd5b8091505092915050565b620005388473ffffffffffffffffffffffffffffffffffffffff166200092a60201b620029001760201c565b1562000922578373ffffffffffffffffffffffffffffffffffffffff1663f23a6e6187878686866040518663ffffffff1660e01b8152600401808673ffffffffffffffffffffffffffffffffffffffff1673ffffffffffffffffffffffffffffffffffffffff1681526020018573ffffffffffffffffffffffffffffffffffffffff1673ffffffffffffffffffffffffffffffffffffffff16815260200184815260200183815260200180602001828103825283818151815260200191508051906020019080838360005b838110156200062057808201518184015260208101905062000603565b50505050905090810190601f1680156200064e5780820380516001836020036101000a031916815260200191505b509650505050505050602060405180830381600087803b1580156200067257600080fd5b505af1925050508015620006a857506040513d60208110156200069457600080fd5b810190808051906020019092919050505060015b620008815760006040519050600081526001156200077d5760443d1015620006d457600090506200077d565b60046000803e60005160e01c6308c379a08114620006f75760009150506200077d565b60043d036004833e81513d602482011167ffffffffffffffff8211171562000725576000925050506200077d565b808301805167ffffffffffffffff811115620007495760009450505050506200077d565b8060208301013d860181111562000769576000955050505050506200077d565b601f19601f82011660405282955050505050505b806200078a57506200082f565b806040517f08c379a00000000000000000000000000000000000000000000000000000000081526004018080602001828103825283818151815260200191508051906020019080838360005b83811015620007f3578082015181840152602081019050620007d6565b50505050905090810190601f168015620008215780820380516001836020036101000a031916815260200191505b509250505060405180910390fd5b6040517f08c379a0000000000000000000000000000000000000000000000000000000008152600401808060200182810382526034815260200180620035696034913960400191505060405180910390fd5b63f23a6e6160e01b7bffffffffffffffffffffffffffffffffffffffffffffffffffffffff1916817bffffffffffffffffffffffffffffffffffffffffffffffffffffffff19161462000920576040517f08c379a00000000000000000000000000000000000000000000000000000000081526004018080602001828103825260288152602001806200359d6028913960400191505060405180910390fd5b505b505050505050565b600080823b905060008111915050919050565b828054600181600116156101000203166002900490600052602060002090601f016020900481019282601f106200098057805160ff1916838001178555620009b1565b82800160010185558215620009b1579182015b82811115620009b057825182559160200191906001019062000993565b5b509050620009c09190620009c4565b5090565b620009e991905b80821115620009e5576000816000905550600101620009cb565b5090565b90565b612b6d80620009fc6000396000f3fe608060405234801561001057600080fd5b50600436106100b35760003560e01c8063a22cb46511610071578063a22cb46514610642578063bd85b03914610692578063c87b56dd146106d4578063e8a3d4851461077b578063e985e9c5146107fe578063f242432a1461087a576100b3565b8062fdd58e146100b857806301ffc9a71461011a5780630e89341c1461017f578063156e29f6146102265780632eb2c2d61461027e5780634e1273f4146104a1575b600080fd5b610104600480360360408110156100ce57600080fd5b81019080803573ffffffffffffffffffffffffffffffffffffffff16906020019092919080359060200190929190505050610989565b6040518082815260200191505060405180910390f35b6101656004803603602081101561013057600080fd5b8101908080357bffffffffffffffffffffffffffffffffffffffffffffffffffffffff19169060200190929190505050610a69565b604051808215151515815260200191505060405180910390f35b6101ab6004803603602081101561019557600080fd5b8101908080359060200190929190505050610ad0565b6040518080602001828103825283818151815260200191508051906020019080838360005b838110156101eb5780820151818401526020810190506101d0565b50505050905090810190601f1680156102185780820380516001836020036101000a031916815260200191505b509250505060405180910390f35b61027c6004803603606081101561023c57600080fd5b81019080803573ffffffffffffffffffffffffffffffffffffffff1690602001909291908035906020019092919080359060200190929190505050610b85565b005b61049f600480360360a081101561029457600080fd5b81019080803573ffffffffffffffffffffffffffffffffffffffff169060200190929190803573ffffffffffffffffffffffffffffffffffffffff169060200190929190803590602001906401000000008111156102f157600080fd5b82018360208201111561030357600080fd5b8035906020019184602083028401116401000000008311171561032557600080fd5b919080806020026020016040519081016040528093929190818152602001838360200280828437600081840152601f19601f8201169050808301925050505050505091929192908035906020019064010000000081111561038557600080fd5b82018360208201111561039757600080fd5b803590602001918460208302840111640100000000831117156103b957600080fd5b919080806020026020016040519081016040528093929190818152602001838360200280828437600081840152601f19601f8201169050808301925050505050505091929192908035906020019064010000000081111561041957600080fd5b82018360208201111561042b57600080fd5b8035906020019184600183028401116401000000008311171561044d57600080fd5b91908080601f016020809104026020016040519081016040528093929190818152602001838380828437600081840152601f19601f820116905080830192505050505050509192919290505050610ba5565b005b6105eb600480360360408110156104b757600080fd5b81019080803590602001906401000000008111156104d457600080fd5b8201836020820111156104e657600080fd5b8035906020019184602083028401116401000000008311171561050857600080fd5b919080806020026020016040519081016040528093929190818152602001838360200280828437600081840152601f19601f8201169050808301925050505050505091929192908035906020019064010000000081111561056857600080fd5b82018360208201111561057a57600080fd5b8035906020019184602083028401116401000000008311171561059c57600080fd5b919080806020026020016040519081016040528093929190818152602001838360200280828437600081840152601f19601f820116905080830192505050505050509192919290505050611033565b6040518080602001828103825283818151815260200191508051906020019060200280838360005b8381101561062e578082015181840152602081019050610613565b505050509050019250505060405180910390f35b6106906004803603604081101561065857600080fd5b81019080803573ffffffffffffffffffffffffffffffffffffffff169060200190929190803515159060200190929190505050611211565b005b6106be600480360360208110156106a857600080fd5b81019080803590602001909291905050506113ac565b6040518082815260200191505060405180910390f35b610700600480360360208110156106ea57600080fd5b81019080803590602001909291905050506113c4565b6040518080602001828103825283818151815260200191508051906020019080838360005b83811015610740578082015181840152602081019050610725565b50505050905090810190601f16801561076d5780820380516001836020036101000a031916815260200191505b509250505060405180910390f35b610783611479565b6040518080602001828103825283818151815260200191508051906020019080838360005b838110156107c35780820151818401526020810190506107a8565b50505050905090810190601f1680156107f05780820380516001836020036101000a031916815260200191505b509250505060405180910390f35b6108606004803603604081101561081457600080fd5b81019080803573ffffffffffffffffffffffffffffffffffffffff169060200190929190803573ffffffffffffffffffffffffffffffffffffffff169060200190929190505050611499565b604051808215151515815260200191505060405180910390f35b610987600480360360a081101561089057600080fd5b81019080803573ffffffffffffffffffffffffffffffffffffffff169060200190929190803573ffffffffffffffffffffffffffffffffffffffff16906020019092919080359060200190929190803590602001909291908035906020019064010000000081111561090157600080fd5b82018360208201111561091357600080fd5b8035906020019184600183028401116401000000008311171561093557600080fd5b91908080601f016020809104026020016040519081016040528093929190818152602001838380828437600081840152601f19601f820116905080830192505050505050509192919290505050611532565b005b60008073ffffffffffffffffffffffffffffffffffffffff168373ffffffffffffffffffffffffffffffffffffffff161415610a10576040517f08c379a000000000000000000000000000000000000000000000000000000000815260040180806020018281038252602b815260200180612997602b913960400191505060405180910390fd5b6001600083815260200190815260200160002060008473ffffffffffffffffffffffffffffffffffffffff1673ffffffffffffffffffffffffffffffffffffffff16815260200190815260200160002054905092915050565b6000806000837bffffffffffffffffffffffffffffffffffffffffffffffffffffffff19167bffffffffffffffffffffffffffffffffffffffffffffffffffffffff1916815260200190815260200160002060009054906101000a900460ff169050919050565b6060610b7e60038054600181600116156101000203166002900480601f016020809104026020016040519081016040528092919081815260200182805460018160011615610100020316600290048015610b6b5780601f10610b4057610100808354040283529160200191610b6b565b820191906000526020600020905b815481529060010190602001808311610b4e57829003601f168201915b5050505050610b79846118a7565b6119d4565b9050919050565b610ba083838360405180602001604052806000815250611a18565b505050565b8151835114610bff576040517f08c379a0000000000000000000000000000000000000000000000000000000008152600401808060200182810382526028815260200180612aef6028913960400191505060405180910390fd5b600073ffffffffffffffffffffffffffffffffffffffff168473ffffffffffffffffffffffffffffffffffffffff161415610c85576040517f08c379a0000000000000000000000000000000000000000000000000000000008152600401808060200182810382526025815260200180612a1c6025913960400191505060405180910390fd5b610c8d611c1b565b73ffffffffffffffffffffffffffffffffffffffff168573ffffffffffffffffffffffffffffffffffffffff161480610cd35750610cd285610ccd611c1b565b611499565b5b610d28576040517f08c379a0000000000000000000000000000000000000000000000000000000008152600401808060200182810382526032815260200180612a416032913960400191505060405180910390fd5b6000610d32611c1b565b9050610d42818787878787611c23565b60008090505b8451811015610f16576000858281518110610d5f57fe5b602002602001015190506000858381518110610d7757fe5b60200260200101519050610dfe816040518060600160405280602a8152602001612a73602a91396001600086815260200190815260200160002060008d73ffffffffffffffffffffffffffffffffffffffff1673ffffffffffffffffffffffffffffffffffffffff16815260200190815260200160002054611c2b9092919063ffffffff16565b6001600084815260200190815260200160002060008b73ffffffffffffffffffffffffffffffffffffffff1673ffffffffffffffffffffffffffffffffffffffff16815260200190815260200160002081905550610eb5816001600085815260200190815260200160002060008b73ffffffffffffffffffffffffffffffffffffffff1673ffffffffffffffffffffffffffffffffffffffff16815260200190815260200160002054611ceb90919063ffffffff16565b6001600084815260200190815260200160002060008a73ffffffffffffffffffffffffffffffffffffffff1673ffffffffffffffffffffffffffffffffffffffff168152602001908152602001600020819055505050806001019050610d48565b508473ffffffffffffffffffffffffffffffffffffffff168673ffffffffffffffffffffffffffffffffffffffff168273ffffffffffffffffffffffffffffffffffffffff167f4a39dc06d4c0dbc64b70af90fd698a233a518aa5d07e595d983b8c0526c8f7fb8787604051808060200180602001838103835285818151815260200191508051906020019060200280838360005b83811015610fc6578082015181840152602081019050610fab565b50505050905001838103825284818151815260200191508051906020019060200280838360005b83811015611008578082015181840152602081019050610fed565b5050505090500194505050505060405180910390a461102b818787878787611d73565b505050505050565b6060815183511461108f576040517f08c379a0000000000000000000000000000000000000000000000000000000008152600401808060200182810382526029815260200180612ac66029913960400191505060405180910390fd5b606083516040519080825280602002602001820160405280156110c15781602001602082028038833980820191505090505b50905060008090505b845181101561120657600073ffffffffffffffffffffffffffffffffffffffff168582815181106110f757fe5b602002602001015173ffffffffffffffffffffffffffffffffffffffff16141561116c576040517f08c379a00000000000000000000000000000000000000000000000000000000081526004018080602001828103825260318152602001806129c26031913960400191505060405180910390fd5b6001600085838151811061117c57fe5b6020026020010151815260200190815260200160002060008683815181106111a057fe5b602002602001015173ffffffffffffffffffffffffffffffffffffffff1673ffffffffffffffffffffffffffffffffffffffff168152602001908152602001600020548282815181106111ef57fe5b6020026020010181815250508060010190506110ca565b508091505092915050565b8173ffffffffffffffffffffffffffffffffffffffff16611230611c1b565b73ffffffffffffffffffffffffffffffffffffffff16141561129d576040517f08c379a0000000000000000000000000000000000000000000000000000000008152600401808060200182810382526029815260200180612a9d6029913960400191505060405180910390fd5b80600260006112aa611c1b565b73ffffffffffffffffffffffffffffffffffffffff1673ffffffffffffffffffffffffffffffffffffffff16815260200190815260200160002060008473ffffffffffffffffffffffffffffffffffffffff1673ffffffffffffffffffffffffffffffffffffffff16815260200190815260200160002060006101000a81548160ff0219169083151502179055508173ffffffffffffffffffffffffffffffffffffffff16611357611c1b565b73ffffffffffffffffffffffffffffffffffffffff167f17307eab39ab6107e8899845ad3d59bd9653f200f220920489ca2b5937696c3183604051808215151515815260200191505060405180910390a35050565b60046020528060005260406000206000915090505481565b606061147260038054600181600116156101000203166002900480601f01602080910402602001604051908101604052809291908181526020018280546001816001161561010002031660029004801561145f5780601f106114345761010080835404028352916020019161145f565b820191906000526020600020905b81548152906001019060200180831161144257829003601f168201915b505050505061146d846118a7565b6119d4565b9050919050565b606060405180606001604052806027815260200161297060279139905090565b600080839050600260008273ffffffffffffffffffffffffffffffffffffffff1673ffffffffffffffffffffffffffffffffffffffff16815260200190815260200160002060008473ffffffffffffffffffffffffffffffffffffffff1673ffffffffffffffffffffffffffffffffffffffff16815260200190815260200160002060009054906101000a900460ff1691505092915050565b600073ffffffffffffffffffffffffffffffffffffffff168473ffffffffffffffffffffffffffffffffffffffff1614156115b8576040517f08c379a0000000000000000000000000000000000000000000000000000000008152600401808060200182810382526025815260200180612a1c6025913960400191505060405180910390fd5b6115c0611c1b565b73ffffffffffffffffffffffffffffffffffffffff168573ffffffffffffffffffffffffffffffffffffffff161480611606575061160585611600611c1b565b611499565b5b61165b576040517f08c379a00000000000000000000000000000000000000000000000000000000081526004018080602001828103825260298152602001806129f36029913960400191505060405180910390fd5b6000611665611c1b565b9050611685818787611676886121eb565b61167f886121eb565b87611c23565b611702836040518060600160405280602a8152602001612a73602a91396001600088815260200190815260200160002060008a73ffffffffffffffffffffffffffffffffffffffff1673ffffffffffffffffffffffffffffffffffffffff16815260200190815260200160002054611c2b9092919063ffffffff16565b6001600086815260200190815260200160002060008873ffffffffffffffffffffffffffffffffffffffff1673ffffffffffffffffffffffffffffffffffffffff168152602001908152602001600020819055506117b9836001600087815260200190815260200160002060008873ffffffffffffffffffffffffffffffffffffffff1673ffffffffffffffffffffffffffffffffffffffff16815260200190815260200160002054611ceb90919063ffffffff16565b6001600086815260200190815260200160002060008773ffffffffffffffffffffffffffffffffffffffff1673ffffffffffffffffffffffffffffffffffffffff168152602001908152602001600020819055508473ffffffffffffffffffffffffffffffffffffffff168673ffffffffffffffffffffffffffffffffffffffff168273ffffffffffffffffffffffffffffffffffffffff167fc3d58168c5ae7397731d063d5bbf3d657854427343f4c083240f7aacaa2d0f628787604051808381526020018281526020019250505060405180910390a461189f818787878787612244565b505050505050565b606060008214156118ef576040518060400160405280600181526020017f300000000000000000000000000000000000000000000000000000000000000081525090506119cf565b600082905060005b60008214611919578080600101915050600a828161191157fe5b0491506118f7565b6060816040519080825280601f01601f19166020018201604052801561194e5781602001600182028038833980820191505090505b50905060006001830390505b600086146119c757600a868161196c57fe5b0660300160f81b8282806001900393508151811061198657fe5b60200101907effffffffffffffffffffffffffffffffffffffffffffffffffffffffffffff1916908160001a905350600a86816119bf57fe5b04955061195a565b819450505050505b919050565b6060611a10838360405180602001604052806000815250604051806020016040528060008152506040518060200160405280600081525061263a565b905092915050565b600073ffffffffffffffffffffffffffffffffffffffff168473ffffffffffffffffffffffffffffffffffffffff161415611a9e576040517f08c379a0000000000000000000000000000000000000000000000000000000008152600401808060200182810382526021815260200180612b176021913960400191505060405180910390fd5b6000611aa8611c1b565b9050611ac981600087611aba886121eb565b611ac3886121eb565b87611c23565b611b2c836001600087815260200190815260200160002060008873ffffffffffffffffffffffffffffffffffffffff1673ffffffffffffffffffffffffffffffffffffffff16815260200190815260200160002054611ceb90919063ffffffff16565b6001600086815260200190815260200160002060008773ffffffffffffffffffffffffffffffffffffffff1673ffffffffffffffffffffffffffffffffffffffff168152602001908152602001600020819055508473ffffffffffffffffffffffffffffffffffffffff16600073ffffffffffffffffffffffffffffffffffffffff168273ffffffffffffffffffffffffffffffffffffffff167fc3d58168c5ae7397731d063d5bbf3d657854427343f4c083240f7aacaa2d0f628787604051808381526020018281526020019250505060405180910390a4611c1481600087878787612244565b5050505050565b600033905090565b505050505050565b6000838311158290611cd8576040517f08c379a00000000000000000000000000000000000000000000000000000000081526004018080602001828103825283818151815260200191508051906020019080838360005b83811015611c9d578082015181840152602081019050611c82565b50505050905090810190601f168015611cca5780820380516001836020036101000a031916815260200191505b509250505060405180910390fd5b5060008385039050809150509392505050565b600080828401905083811015611d69576040517f08c379a000000000000000000000000000000000000000000000000000000000815260040180806020018281038252601b8152602001807f536166654d6174683a206164646974696f6e206f766572666c6f77000000000081525060200191505060405180910390fd5b8091505092915050565b611d928473ffffffffffffffffffffffffffffffffffffffff16612900565b156121e3578373ffffffffffffffffffffffffffffffffffffffff1663bc197c8187878686866040518663ffffffff1660e01b8152600401808673ffffffffffffffffffffffffffffffffffffffff1673ffffffffffffffffffffffffffffffffffffffff1681526020018573ffffffffffffffffffffffffffffffffffffffff1673ffffffffffffffffffffffffffffffffffffffff168152602001806020018060200180602001848103845287818151815260200191508051906020019060200280838360005b83811015611e76578082015181840152602081019050611e5b565b50505050905001848103835286818151815260200191508051906020019060200280838360005b83811015611eb8578082015181840152602081019050611e9d565b50505050905001848103825285818151815260200191508051906020019080838360005b83811015611ef7578082015181840152602081019050611edc565b50505050905090810190601f168015611f245780820380516001836020036101000a031916815260200191505b5098505050505050505050602060405180830381600087803b158015611f4957600080fd5b505af1925050508015611f7d57506040513d6020811015611f6957600080fd5b810190808051906020019092919050505060015b6121445760006040519050600081526001156120465760443d1015611fa55760009050612046565b60046000803e60005160e01c6308c379a08114611fc6576000915050612046565b60043d036004833e81513d602482011167ffffffffffffffff82111715611ff257600092505050612046565b808301805167ffffffffffffffff811115612014576000945050505050612046565b8060208301013d860181111561203257600095505050505050612046565b601f19601f82011660405282955050505050505b8061205157506120f3565b806040517f08c379a00000000000000000000000000000000000000000000000000000000081526004018080602001828103825283818151815260200191508051906020019080838360005b838110156120b857808201518184015260208101905061209d565b50505050905090810190601f1680156120e55780820380516001836020036101000a031916815260200191505b509250505060405180910390fd5b6040517f08c379a00000000000000000000000000000000000000000000000000000000081526004018080602001828103825260348152602001806129146034913960400191505060405180910390fd5b63bc197c8160e01b7bffffffffffffffffffffffffffffffffffffffffffffffffffffffff1916817bffffffffffffffffffffffffffffffffffffffffffffffffffffffff1916146121e1576040517f08c379a00000000000000000000000000000000000000000000000000000000081526004018080602001828103825260288152602001806129486028913960400191505060405180910390fd5b505b505050505050565b606080600160405190808252806020026020018201604052801561221e5781602001602082028038833980820191505090505b509050828160008151811061222f57fe5b60200260200101818152505080915050919050565b6122638473ffffffffffffffffffffffffffffffffffffffff16612900565b15612632578373ffffffffffffffffffffffffffffffffffffffff1663f23a6e6187878686866040518663ffffffff1660e01b8152600401808673ffffffffffffffffffffffffffffffffffffffff1673ffffffffffffffffffffffffffffffffffffffff1681526020018573ffffffffffffffffffffffffffffffffffffffff1673ffffffffffffffffffffffffffffffffffffffff16815260200184815260200183815260200180602001828103825283818151815260200191508051906020019080838360005b8381101561234857808201518184015260208101905061232d565b50505050905090810190601f1680156123755780820380516001836020036101000a031916815260200191505b509650505050505050602060405180830381600087803b15801561239857600080fd5b505af19250505080156123cc57506040513d60208110156123b857600080fd5b810190808051906020019092919050505060015b6125935760006040519050600081526001156124955760443d10156123f45760009050612495565b60046000803e60005160e01c6308c379a08114612415576000915050612495565b60043d036004833e81513d602482011167ffffffffffffffff8211171561244157600092505050612495565b808301805167ffffffffffffffff811115612463576000945050505050612495565b8060208301013d860181111561248157600095505050505050612495565b601f19601f82011660405282955050505050505b806124a05750612542565b806040517f08c379a00000000000000000000000000000000000000000000000000000000081526004018080602001828103825283818151815260200191508051906020019080838360005b838110156125075780820151818401526020810190506124ec565b50505050905090810190601f1680156125345780820380516001836020036101000a031916815260200191505b509250505060405180910390fd5b6040517f08c379a00000000000000000000000000000000000000000000000000000000081526004018080602001828103825260348152602001806129146034913960400191505060405180910390fd5b63f23a6e6160e01b7bffffffffffffffffffffffffffffffffffffffffffffffffffffffff1916817bffffffffffffffffffffffffffffffffffffffffffffffffffffffff191614612630576040517f08c379a00000000000000000000000000000000000000000000000000000000081526004018080602001828103825260288152602001806129486028913960400191505060405180910390fd5b505b505050505050565b6060808690506060869050606086905060608690506060869050606081518351855187518951010101016040519080825280601f01601f1916602001820160405280156126965781602001600182028038833980820191505090505b5090506060819050600080905060008090505b8851811015612717578881815181106126be57fe5b602001015160f81c60f81b8383806001019450815181106126db57fe5b60200101907effffffffffffffffffffffffffffffffffffffffffffffffffffffffffffff1916908160001a90535080806001019150506126a9565b5060008090505b875181101561278c5787818151811061273357fe5b602001015160f81c60f81b83838060010194508151811061275057fe5b60200101907effffffffffffffffffffffffffffffffffffffffffffffffffffffffffffff1916908160001a905350808060010191505061271e565b5060008090505b8651811015612801578681815181106127a857fe5b602001015160f81c60f81b8383806001019450815181106127c557fe5b60200101907effffffffffffffffffffffffffffffffffffffffffffffffffffffffffffff1916908160001a9053508080600101915050612793565b5060008090505b85518110156128765785818151811061281d57fe5b602001015160f81c60f81b83838060010194508151811061283a57fe5b60200101907effffffffffffffffffffffffffffffffffffffffffffffffffffffffffffff1916908160001a9053508080600101915050612808565b5060008090505b84518110156128eb5784818151811061289257fe5b602001015160f81c60f81b8383806001019450815181106128af57fe5b60200101907effffffffffffffffffffffffffffffffffffffffffffffffffffffffffffff1916908160001a905350808060010191505061287d565b50819850505050505050505095945050505050565b600080823b90506000811191505091905056fe455243313135353a207472616e7366657220746f206e6f6e2045524331313535526563656976657220696d706c656d656e746572455243313135353a204552433131353552656365697665722072656a656374656420746f6b656e7368747470733a2f2f6170692e6e6f646572756e6e6572732e696f2f6170692f6e66742e6a736f6e455243313135353a2062616c616e636520717565727920666f7220746865207a65726f2061646472657373455243313135353a2062617463682062616c616e636520717565727920666f7220746865207a65726f2061646472657373455243313135353a2063616c6c6572206973206e6f74206f776e6572206e6f7220617070726f766564455243313135353a207472616e7366657220746f20746865207a65726f2061646472657373455243313135353a207472616e736665722063616c6c6572206973206e6f74206f776e6572206e6f7220617070726f766564455243313135353a20696e73756666696369656e742062616c616e636520666f72207472616e73666572455243313135353a2073657474696e6720617070726f76616c2073746174757320666f722073656c66455243313135353a206163636f756e747320616e6420696473206c656e677468206d69736d61746368455243313135353a2069647320616e6420616d6f756e7473206c656e677468206d69736d61746368455243313135353a206d696e7420746f20746865207a65726f2061646472657373a26469706673582212208a3d9614810474d6045b4ec31d8d495dad00dfb55429d711c736f267cda771c464736f6c63430006020033455243313135353a207472616e7366657220746f206e6f6e2045524331313535526563656976657220696d706c656d656e746572455243313135353a204552433131353552656365697665722072656a656374656420746f6b656e73455243313135353a206d696e7420746f20746865207a65726f2061646472657373",
  "linkReferences": {},
  "deployedLinkReferences": {}
}